{
    "contractName": "CrossChainAirdropSender",
    "abi": [
        {
            "inputs": [
                {
                    "internalType": "address",
                    "name": "_router",
                    "type": "address"
                },
                {
                    "internalType": "uint64",
                    "name": "_destinationChainSelector",
                    "type": "uint64"
                },
                {
                    "internalType": "address",
                    "name": "_receiverContract",
                    "type": "address"
                },
                {
                    "internalType": "address",
                    "name": "_linkToken",
                    "type": "address"
                }
            ],
            "stateMutability": "nonpayable",
            "type": "constructor"
        },
        {
            "anonymous": false,
            "inputs": [
                {
                    "indexed": true,
                    "internalType": "bytes32",
                    "name": "messageId",
                    "type": "bytes32"
                },
                {
                    "indexed": true,
                    "internalType": "uint64",
                    "name": "destinationChainSelector",
                    "type": "uint64"
                },
                {
                    "indexed": false,
                    "internalType": "address",
                    "name": "receiver",
                    "type": "address"
                },
                {
                    "indexed": false,
                    "internalType": "bytes",
                    "name": "data",
                    "type": "bytes"
                }
            ],
            "name": "MessageSent",
            "type": "event"
        },
        {
            "anonymous": false,
            "inputs": [
                {
                    "indexed": true,
                    "internalType": "address",
                    "name": "from",
                    "type": "address"
                },
                {
                    "indexed": true,
                    "internalType": "address",
                    "name": "to",
                    "type": "address"
                }
            ],
            "name": "OwnershipTransferRequested",
            "type": "event"
        },
        {
            "anonymous": false,
            "inputs": [
                {
                    "indexed": true,
                    "internalType": "address",
                    "name": "from",
                    "type": "address"
                },
                {
                    "indexed": true,
                    "internalType": "address",
                    "name": "to",
                    "type": "address"
                }
            ],
            "name": "OwnershipTransferred",
            "type": "event"
        },
        {
            "inputs": [],
            "name": "acceptOwnership",
            "outputs": [],
            "stateMutability": "nonpayable",
            "type": "function"
        },
        {
            "inputs": [
                {
                    "internalType": "address[]",
                    "name": "recipients",
                    "type": "address[]"
                },
                {
                    "internalType": "uint256[]",
                    "name": "amounts",
                    "type": "uint256[]"
                }
            ],
            "name": "initiateAirdrop",
            "outputs": [],
            "stateMutability": "nonpayable",
            "type": "function"
        },
        {
            "inputs": [],
            "name": "owner",
            "outputs": [
                {
                    "internalType": "address",
                    "name": "",
                    "type": "address"
                }
            ],
            "stateMutability": "view",
            "type": "function"
        },
        {
            "inputs": [
                {
                    "internalType": "address",
                    "name": "to",
                    "type": "address"
                }
            ],
            "name": "transferOwnership",
            "outputs": [],
            "stateMutability": "nonpayable",
            "type": "function"
        },
        {
            "inputs": [
                {
                    "internalType": "uint64",
                    "name": "_destinationChainSelector",
                    "type": "uint64"
                },
                {
                    "internalType": "address",
                    "name": "_receiverContract",
                    "type": "address"
                }
            ],
            "name": "updateDestination",
            "outputs": [],
            "stateMutability": "nonpayable",
            "type": "function"
        },
        {
            "inputs": [
                {
                    "internalType": "address",
                    "name": "token",
                    "type": "address"
                },
                {
                    "internalType": "uint256",
                    "name": "amount",
                    "type": "uint256"
                }
            ],
            "name": "withdrawToken",
            "outputs": [],
            "stateMutability": "nonpayable",
            "type": "function"
        }
    ],
    "bytecode": "60803461014557601f610aba38819003918201601f19168301916001600160401b0383118484101761014957808492608094604052833981010312610145576100478161015d565b60208201519091906001600160401b03811681036101455761007760606100706040850161015d565b930161015d565b923315610100575f80546001600160a01b031990811633179091556004805482166001600160a01b0393841617905560018054600160a01b600160e01b03191660a09490941b600160a01b600160e01b03169390931790925560028054831693821693909317909255600380549091169290911691909117905560405161094890816101728239f35b60405162461bcd60e51b815260206004820152601860248201527f43616e6e6f7420736574206f776e657220746f207a65726f00000000000000006044820152606490fd5b5f80fd5b634e487b7160e01b5f52604160045260245ffd5b51906001600160a01b03821682036101455756fe6080806040526004361015610012575f80fd5b5f3560e01c90816379ba5097146106a4575080638da5cb5b1461067d5780639e281a9814610603578063e0620a941461057f578063f2fde38b146104c45763fdf34dcb1461005e575f80fd5b346103775760403660031901126103775760043567ffffffffffffffff81116103775761008f903690600401610764565b9060243567ffffffffffffffff8111610377576100b0903690600401610764565b6100bb9291926108c1565b80840361048d5760405193806060860160406020880152526080850192905f905b80821061046357505050838203601f190160408501528082526001600160fb1b0381116103775761012592602092859260051b809285830137010301601f198101835282610795565b60018060a01b03600254169060405191602083015260208252610149604083610795565b6020604051926101598285610795565b5f845260018060a01b0360035416936040519160a0830183811067ffffffffffffffff82111761044f57604052825283838301526040820152836060820152604051938285019480861067ffffffffffffffff87111761044f576101fa956040525f8152608083015260018060a01b0360045416838367ffffffffffffffff60015460a01c1660405198899283926320487ded60e01b8452600484016107f3565b0381845afa958615610382575f96610420575b506040516370a0823160e01b81523060048201528481602481865afa80156103825787915f916103ef575b50106103b85760405163095ea7b360e01b81526001600160a01b0391909116600482015260248101959095529293928290849060449082905f905af1908115610382576102bf93839261038d575b5060018060a01b036004541667ffffffffffffffff60015460a01c165f6040518097819582946396f4e9f960e01b8452600484016107f3565b03925af1918215610382575f9261032f575b507f2b046eaedd72143b31efbfc1753f3e57682918353770498fae99edbc3d8375969067ffffffffffffffff60015460a01c169361032a60018060a01b03600254169160408051948594855284015260408301906107cf565b0390a3005b9080925081813d831161037b575b6103478183610795565b810103126103775751907f2b046eaedd72143b31efbfc1753f3e57682918353770498fae99edbc3d8375966102d1565b5f80fd5b503d61033d565b6040513d5f823e3d90fd5b6103ac90833d85116103b1575b6103a48183610795565b8101906107b7565b610286565b503d61039a565b60405162461bcd60e51b815260048101859052600f60248201526e4e6f7420656e6f756768204c494e4b60881b6044820152606490fd5b809250868092503d8311610419575b6104088183610795565b81010312610377578690515f610238565b503d6103fe565b9095508381813d8311610448575b6104388183610795565b810103126103775751945f61020d565b503d61042e565b634e487b7160e01b5f52604160045260245ffd5b90919384359060018060a01b038216809203610377576020816001938293520195019201906100dc565b60405162461bcd60e51b815260206004820152600f60248201526e098cadccee8d040dad2e6dac2e8c6d608b1b6044820152606490fd5b34610377576020366003190112610377576104dd61074e565b6104e56108c1565b6001600160a01b031633811461053a57600180546001600160a01b031916821790555f80546001600160a01b0316907fed8889f560326eb138920d842192f0eb3dd22b4f139c87a2c57538e05bae12789080a3005b60405162461bcd60e51b815260206004820152601760248201527f43616e6e6f74207472616e7366657220746f2073656c660000000000000000006044820152606490fd5b346103775760403660031901126103775760043567ffffffffffffffff81168103610377576024356001600160a01b0381169190829003610377576105c26108c1565b6001805467ffffffffffffffff60a01b191660a09290921b67ffffffffffffffff60a01b16919091179055600280546001600160a01b031916919091179055005b346103775760403660031901126103775761061c61074e565b6106246108c1565b60405163a9059cbb60e01b8152336004820152602480359082015290602090829060449082905f906001600160a01b03165af180156103825761066357005b61067b9060203d6020116103b1576103a48183610795565b005b34610377575f366003190112610377575f546040516001600160a01b039091168152602090f35b34610377575f36600319011261037757600154906001600160a01b038216330361071357505f80546001600160a01b031980821633908117845593166001556001600160a01b0316907f8be0079c531659141344cd1fd0a4f28419497f9722a3daafe3b4186f6b6457e09080a3005b62461bcd60e51b815260206004820152601660248201527526bab9ba10313290383937b837b9b2b21037bbb732b960511b6044820152606490fd5b600435906001600160a01b038216820361037757565b9181601f840112156103775782359167ffffffffffffffff8311610377576020808501948460051b01011161037757565b90601f8019910116810190811067ffffffffffffffff82111761044f57604052565b90816020910312610377575180151581036103775790565b805180835260209291819084018484015e5f828201840152601f01601f1916010190565b9067ffffffffffffffff909392931681526040602082015261083a610824845160a0604085015260e08401906107cf565b6020850151838203603f190160608501526107cf565b90604084015191603f19828203016080830152602080845192838152019301905f5b818110610896575050506080610893939460018060a01b0360608201511660a084015201519060c0603f19828503019101526107cf565b90565b825180516001600160a01b03168652602090810151818701526040909501949092019160010161085c565b5f546001600160a01b031633036108d457565b60405162461bcd60e51b815260206004820152601660248201527527b7363c9031b0b63630b1363290313c9037bbb732b960511b6044820152606490fdfea2646970667358221220c0bb40b1fb7f26678302d62042c3b536e7a6b1633505238ca214c280b0cbcdbc64736f6c634300081e0033",
    "sourcePath": "/Users/mac/Work/Hackathon/TerraDrop/src/contracts/SourceChainAirDrop.sol",
    "compiler": {
        "name": "solc",
        "version": "0.8.30+commit.73712a01"
    },
    "functionHashes": {
        "acceptOwnership()": "79ba5097",
        "initiateAirdrop(address[],uint256[])": "fdf34dcb",
        "owner()": "8da5cb5b",
        "transferOwnership(address)": "f2fde38b",
        "updateDestination(uint64,address)": "e0620a94",
        "withdrawToken(address,uint256)": "9e281a98"
    },
    "gasEstimates": {
        "creation": {
            "codeDepositCost": "475200",
            "executionCost": "infinite",
            "totalCost": "infinite"
        },
        "external": {
            "acceptOwnership()": "50159",
            "initiateAirdrop(address[],uint256[])": "infinite",
            "owner()": "2301",
            "transferOwnership(address)": "30363",
            "updateDestination(uint64,address)": "50952",
            "withdrawToken(address,uint256)": "infinite"
        }
    }
}